{
  "contractName": "ContratoAcuerdo",
  "abi": [
    {
      "inputs": [],
      "stateMutability": "nonpayable",
      "type": "constructor"
    },
    {
      "anonymous": false,
      "inputs": [
        {
          "indexed": false,
          "internalType": "uint256",
          "name": "id",
          "type": "uint256"
        },
        {
          "indexed": false,
          "internalType": "address",
          "name": "parte",
          "type": "address"
        },
        {
          "indexed": false,
          "internalType": "bool",
          "name": "confirmado",
          "type": "bool"
        }
      ],
      "name": "AcuerdoConfirmado",
      "type": "event"
    },
    {
      "anonymous": false,
      "inputs": [
        {
          "indexed": false,
          "internalType": "uint256",
          "name": "id",
          "type": "uint256"
        },
        {
          "indexed": false,
          "internalType": "string",
          "name": "descripcion",
          "type": "string"
        },
        {
          "indexed": false,
          "internalType": "address",
          "name": "parte1",
          "type": "address"
        },
        {
          "indexed": false,
          "internalType": "address",
          "name": "parte2",
          "type": "address"
        }
      ],
      "name": "AcuerdoCreado",
      "type": "event"
    },
    {
      "inputs": [
        {
          "internalType": "uint256",
          "name": "",
          "type": "uint256"
        }
      ],
      "name": "acuerdos",
      "outputs": [
        {
          "internalType": "uint256",
          "name": "id",
          "type": "uint256"
        },
        {
          "internalType": "string",
          "name": "descripcion",
          "type": "string"
        },
        {
          "internalType": "address",
          "name": "parte1",
          "type": "address"
        },
        {
          "internalType": "address",
          "name": "parte2",
          "type": "address"
        },
        {
          "internalType": "bool",
          "name": "confirmadoParte1",
          "type": "bool"
        },
        {
          "internalType": "bool",
          "name": "confirmadoParte2",
          "type": "bool"
        }
      ],
      "stateMutability": "view",
      "type": "function",
      "constant": true
    },
    {
      "inputs": [],
      "name": "numeroDeAcuerdos",
      "outputs": [
        {
          "internalType": "uint256",
          "name": "",
          "type": "uint256"
        }
      ],
      "stateMutability": "view",
      "type": "function",
      "constant": true
    },
    {
      "inputs": [
        {
          "internalType": "string",
          "name": "descripcion",
          "type": "string"
        },
        {
          "internalType": "address",
          "name": "parte2",
          "type": "address"
        }
      ],
      "name": "crearAcuerdo",
      "outputs": [],
      "stateMutability": "nonpayable",
      "type": "function"
    },
    {
      "inputs": [
        {
          "internalType": "uint256",
          "name": "id",
          "type": "uint256"
        }
      ],
      "name": "confirmarAcuerdo",
      "outputs": [],
      "stateMutability": "nonpayable",
      "type": "function"
    },
    {
      "inputs": [
        {
          "internalType": "uint256",
          "name": "id",
          "type": "uint256"
        }
      ],
      "name": "estadoAcuerdo",
      "outputs": [
        {
          "internalType": "bool",
          "name": "",
          "type": "bool"
        }
      ],
      "stateMutability": "view",
      "type": "function",
      "constant": true
    }
  ],
  "bytecode": "0x608060405234801561001057600080fd5b506000600181905550610e33806100286000396000f3fe608060405234801561001057600080fd5b50600436106100575760003560e01c806303fc46501461005c5780632f8cb0b91461007a5780633ed001e8146100aa57806384c8d502146100c6578063d97c439c146100fb575b600080fd5b610064610117565b6040516100719190610aa9565b60405180910390f35b610094600480360381019061008f9190610979565b61011d565b6040516100a19190610a6e565b60405180910390f35b6100c460048036038101906100bf9190610979565b6102d7565b005b6100e060048036038101906100db9190610979565b61050a565b6040516100f296959493929190610b47565b60405180910390f35b61011560048036038101906101109190610925565b610628565b005b60015481565b6000806000808481526020019081526020016000206040518060c00160405290816000820154815260200160018201805461015790610cb6565b80601f016020809104026020016040519081016040528092919081815260200182805461018390610cb6565b80156101d05780601f106101a5576101008083540402835291602001916101d0565b820191906000526020600020905b8154815290600101906020018083116101b357829003601f168201915b505050505081526020016002820160009054906101000a900473ffffffffffffffffffffffffffffffffffffffff1673ffffffffffffffffffffffffffffffffffffffff1673ffffffffffffffffffffffffffffffffffffffff1681526020016003820160009054906101000a900473ffffffffffffffffffffffffffffffffffffffff1673ffffffffffffffffffffffffffffffffffffffff1673ffffffffffffffffffffffffffffffffffffffff1681526020016003820160149054906101000a900460ff161515151581526020016003820160159054906101000a900460ff1615151515815250509050806080015180156102cf57508060a001515b915050919050565b600080600083815260200190815260200160002090508060020160009054906101000a900473ffffffffffffffffffffffffffffffffffffffff1673ffffffffffffffffffffffffffffffffffffffff163373ffffffffffffffffffffffffffffffffffffffff16148061039a57508060030160009054906101000a900473ffffffffffffffffffffffffffffffffffffffff1673ffffffffffffffffffffffffffffffffffffffff163373ffffffffffffffffffffffffffffffffffffffff16145b6103d9576040517f08c379a00000000000000000000000000000000000000000000000000000000081526004016103d090610a89565b60405180910390fd5b8060020160009054906101000a900473ffffffffffffffffffffffffffffffffffffffff1673ffffffffffffffffffffffffffffffffffffffff163373ffffffffffffffffffffffffffffffffffffffff1614156104535760018160030160146101000a81548160ff0219169083151502179055506104ca565b8060030160009054906101000a900473ffffffffffffffffffffffffffffffffffffffff1673ffffffffffffffffffffffffffffffffffffffff163373ffffffffffffffffffffffffffffffffffffffff1614156104c95760018160030160156101000a81548160ff0219169083151502179055505b5b7f41af83b29a9300fc7c769aa0132799139f1d122c382ec171c3d53689a945f350823360016040516104fe93929190610ac4565b60405180910390a15050565b600060205280600052604060002060009150905080600001549080600101805461053390610cb6565b80601f016020809104026020016040519081016040528092919081815260200182805461055f90610cb6565b80156105ac5780601f10610581576101008083540402835291602001916105ac565b820191906000526020600020905b81548152906001019060200180831161058f57829003601f168201915b5050505050908060020160009054906101000a900473ffffffffffffffffffffffffffffffffffffffff16908060030160009054906101000a900473ffffffffffffffffffffffffffffffffffffffff16908060030160149054906101000a900460ff16908060030160159054906101000a900460ff16905086565b6040518060c0016040528060015481526020018381526020013373ffffffffffffffffffffffffffffffffffffffff1681526020018273ffffffffffffffffffffffffffffffffffffffff1681526020016000151581526020016000151581525060008060015481526020019081526020016000206000820151816000015560208201518160010190805190602001906106c39291906107f0565b5060408201518160020160006101000a81548173ffffffffffffffffffffffffffffffffffffffff021916908373ffffffffffffffffffffffffffffffffffffffff16021790555060608201518160030160006101000a81548173ffffffffffffffffffffffffffffffffffffffff021916908373ffffffffffffffffffffffffffffffffffffffff16021790555060808201518160030160146101000a81548160ff02191690831515021790555060a08201518160030160156101000a81548160ff0219169083151502179055509050507f49c597131dacc924896687d87831d53e3dc79cf423c00a016af188d2905e951f6001548333846040516107cc9493929190610afb565b60405180910390a1600160008154809291906107e790610ce8565b91905055505050565b8280546107fc90610cb6565b90600052602060002090601f01602090048101928261081e5760008555610865565b82601f1061083757805160ff1916838001178555610865565b82800160010185558215610865579182015b82811115610864578251825591602001919060010190610849565b5b5090506108729190610876565b5090565b5b8082111561088f576000816000905550600101610877565b5090565b60006108a66108a184610be0565b610baf565b9050828152602081018484840111156108be57600080fd5b6108c9848285610c74565b509392505050565b6000813590506108e081610dcf565b92915050565b600082601f8301126108f757600080fd5b8135610907848260208601610893565b91505092915050565b60008135905061091f81610de6565b92915050565b6000806040838503121561093857600080fd5b600083013567ffffffffffffffff81111561095257600080fd5b61095e858286016108e6565b925050602061096f858286016108d1565b9150509250929050565b60006020828403121561098b57600080fd5b600061099984828501610910565b91505092915050565b6109ab81610c2c565b82525050565b6109ba81610c3e565b82525050565b60006109cb82610c10565b6109d58185610c1b565b93506109e5818560208601610c83565b6109ee81610dbe565b840191505092915050565b6000610a06603983610c1b565b91507f536f6c6f206c61732070617274657320696e766f6c756372616461732070756560008301527f64656e20636f6e6669726d617220656c206163756572646f2e000000000000006020830152604082019050919050565b610a6881610c6a565b82525050565b6000602082019050610a8360008301846109b1565b92915050565b60006020820190508181036000830152610aa2816109f9565b9050919050565b6000602082019050610abe6000830184610a5f565b92915050565b6000606082019050610ad96000830186610a5f565b610ae660208301856109a2565b610af360408301846109b1565b949350505050565b6000608082019050610b106000830187610a5f565b8181036020830152610b2281866109c0565b9050610b3160408301856109a2565b610b3e60608301846109a2565b95945050505050565b600060c082019050610b5c6000830189610a5f565b8181036020830152610b6e81886109c0565b9050610b7d60408301876109a2565b610b8a60608301866109a2565b610b9760808301856109b1565b610ba460a08301846109b1565b979650505050505050565b6000604051905081810181811067ffffffffffffffff82111715610bd657610bd5610d8f565b5b8060405250919050565b600067ffffffffffffffff821115610bfb57610bfa610d8f565b5b601f19601f8301169050602081019050919050565b600081519050919050565b600082825260208201905092915050565b6000610c3782610c4a565b9050919050565b60008115159050919050565b600073ffffffffffffffffffffffffffffffffffffffff82169050919050565b6000819050919050565b82818337600083830152505050565b60005b83811015610ca1578082015181840152602081019050610c86565b83811115610cb0576000848401525b50505050565b60006002820490506001821680610cce57607f821691505b60208210811415610ce257610ce1610d60565b5b50919050565b6000610cf382610c6a565b91507fffffffffffffffffffffffffffffffffffffffffffffffffffffffffffffffff821415610d2657610d25610d31565b5b600182019050919050565b7f4e487b7100000000000000000000000000000000000000000000000000000000600052601160045260246000fd5b7f4e487b7100000000000000000000000000000000000000000000000000000000600052602260045260246000fd5b7f4e487b7100000000000000000000000000000000000000000000000000000000600052604160045260246000fd5b6000601f19601f8301169050919050565b610dd881610c2c565b8114610de357600080fd5b50565b610def81610c6a565b8114610dfa57600080fd5b5056fea26469706673582212205615e688c53e865eb1927dafd37b111f61d1b6ecd91d65e1d877759bc729699964736f6c63430008000033",
  "immutableReferences": {},
  "source": "// SPDX-License-Identifier: MIT\r\npragma solidity ^0.8.0;\r\n\r\ncontract ContratoAcuerdo {\r\n    struct Acuerdo {\r\n        uint id;\r\n        string descripcion;\r\n        address parte1;\r\n        address parte2;\r\n        bool confirmadoParte1;\r\n        bool confirmadoParte2;\r\n    }\r\n\r\n    mapping(uint => Acuerdo) public acuerdos;\r\n    uint public numeroDeAcuerdos;\r\n\r\n    event AcuerdoCreado(\r\n        uint id,\r\n        string descripcion,\r\n        address parte1,\r\n        address parte2\r\n    );\r\n\r\n    event AcuerdoConfirmado(\r\n        uint id,\r\n        address parte,\r\n        bool confirmado\r\n    );\r\n\r\n    constructor() {\r\n        numeroDeAcuerdos = 0;\r\n    }\r\n\r\n    function crearAcuerdo(string memory descripcion, address parte2) public {\r\n        acuerdos[numeroDeAcuerdos] = Acuerdo({\r\n            id: numeroDeAcuerdos,\r\n            descripcion: descripcion,\r\n            parte1: msg.sender,\r\n            parte2: parte2,\r\n            confirmadoParte1: false,\r\n            confirmadoParte2: false\r\n        });\r\n\r\n        emit AcuerdoCreado(numeroDeAcuerdos, descripcion, msg.sender, parte2);\r\n        numeroDeAcuerdos++;\r\n    }\r\n\r\n    function confirmarAcuerdo(uint id) public {\r\n        Acuerdo storage acuerdo = acuerdos[id];\r\n\r\n        require(\r\n            msg.sender == acuerdo.parte1 || msg.sender == acuerdo.parte2,\r\n            \"Solo las partes involucradas pueden confirmar el acuerdo.\"\r\n        );\r\n\r\n        if (msg.sender == acuerdo.parte1) {\r\n            acuerdo.confirmadoParte1 = true;\r\n        } else if (msg.sender == acuerdo.parte2) {\r\n            acuerdo.confirmadoParte2 = true;\r\n        }\r\n\r\n        emit AcuerdoConfirmado(id, msg.sender, true);\r\n    }\r\n\r\n    function estadoAcuerdo(uint id) public view returns (bool) {\r\n        Acuerdo memory acuerdo = acuerdos[id];\r\n        return acuerdo.confirmadoParte1 && acuerdo.confirmadoParte2;\r\n    }\r\n}\r\n",
  "sourcePath": "C:\\Users\\Felipe\\Documents\\Contrato\\contracts\\token.sol",
  "compiler": {
    "name": "solc",
    "version": "0.8.0+commit.c7dfd78e.Emscripten.clang"
  },
  "schemaVersion": "3.4.16",
  "updatedAt": "2024-12-10T19:01:51.909Z",
  "networkType": "ethereum",
  "devdoc": {
    "kind": "dev",
    "methods": {},
    "version": 1
  },
  "userdoc": {
    "kind": "user",
    "methods": {},
    "version": 1
  }
}